:100000000C9434000C9460000C9460000C9460001C
:100010000C9460000C9460000C9460000C946000E0
:100020000C9460000C9460000C9460000C946000D0
:100030000C9460000C9460000C9460000C946000C0
:100040000C9460000C9460000C9460000C946000B0
:100050000C9460000C9460000C9460000C946000A0
:100060000C9460000C94600011241FBECFEFD8E008
:10007000DEBFCDBF0E9440000C944B00F894FFCF30
:100080008FEF8AB90E9456000E945B008BB98DB534
:0600900080688DBDF9CF70
:10009600EC010E9465000E946400CE010E94660089
:0600A600CE010E94620081
:0A00AC0080E185B980E48CBD089561
:0A00B6000DB407FEFDCF8EB50895CE
:0400C0000C9400009C
:0400C4000E943E0058
:0200C800089599
:0200CA00089597
:0200CC00089595
:00000001FF
