:100000000C9434000C945F000C945F000C945F001F
:100010000C945F000C945F000C945F000C945F00E4
:100020000C945F000C945F000C945F000C945F00D4
:100030000C945F000C945F000C945F000C945F00C4
:100040000C945F000C945F000C945F000C945F00B4
:100050000C945F000C945F000C945F000C945F00A4
:100060000C945F000C945F0011241FBECFEFD8E00A
:10007000DEBFCDBF0E944B000C944000F894FFCF30
:10008000EC010E9464000E946300CE010E946500A2
:06009000CE010E94610098
:100096001AB88FEF8BB90E94540089B10E945A009A
:0200A600FCCF8D
:0C00A80084B18C6284B981E58CBD0895A0
:0A00B4008EBD0DB407FEFDCF0895C8
:0400BE000C9400009E
:0400C2000E943E005A
:0200C60008959B
:0200C800089599
:0200CA00089597
:00000001FF
