:100000000C9434000C946D000C946D000C946D00F5
:100010000C946D000C946D000C946D000C946D00AC
:100020000C946D000C946D000C946D000C946D009C
:100030000C946D000C946D000C946D000C946D008C
:100040000C946D000C946D000C946D000C946D007C
:100050000C946D000C946D000C946D000C946D006C
:100060000C946D000C946D0011241FBECFEFD8E0EE
:10007000DEBFCDBF0E9440000C946200F894FFCF19
:100080008FEF84B91AB84A9B08C083EC99E00197B6
:10009000F1F700C0000085E085B9499B08C083ECFA
:1000A00099E00197F1F700C0000084E085B9489B12
:1000B000EACF83EC99E00197F1F700C0000086E0F9
:0400C00085B9E1CF4E
:1000C400EC010E9472000E947100CE010E94730034
:0600D400CE010E946F0046
:0400DA000C94000082
:0400DE000E943E003E
:0200E20008957F
:0200E40008957D
:0200E60008957B
:00000001FF
